:100EC2000B213F065B4F666D7D077F6F400B4EBF68
:100ED20086DBCFE6EDFD87FFEF40014B00015B00B3
:100EE200015900014900015F00015E00015D0A0233
:100EF2004C07E6014A0B015A0B0D2C001F1C1F1E4A
:100F02001F1E1F1F1E1F1E1F0D3C001F1D1F1E1F09
:070F12001E1F1F1E1F1E1F02
:0F102400E4FFEFC394807480948050030F80F337
:01103300229A
:100FBD00EFD394007480948040217E26EED394006C
:100FCD007480948040127D82EDD39400748094805F
:0B0FDD0040031D80F31E80E41F80D540
:010FE80022E6
:0D0E5900E55975F00A842421F8E6FD7F04B8
:100E6600EFB40800504D900E73F8282873020EB3A5
:100E7600020EAB020EA3020E9B020E97020E930207
:100E86000E8F020E8BD2A4800ED2A48012D2A48022
:100E960016D2A4801AC2A4D2A3D2A28016C2A4D209
:100EA600A3C2A2800EC2A4C2A3D2A28006C2A4C2BA
:0C0EB600A3C2A28D80121024E4F580225B
:10101200758901758C4C758A0AD2AFD2A9D28CC25D
:021022008E221C
:100FE900E54D5403700EAE4CAF4DFC7D64120F1AE3
:100FF900ED4C700FAE4CAF4D7C017D90120F1AED88
:091009004C7003D20422C204223F
:03000B00020D3EA5
:100D3E00C0E0C0D075D000C000C007758C4C758A5D
:100D4E000A054BE54B641470040549F54BE54964FF
:100D5E003C70040559F549E559643C7004055BF592
:100D6E0059E55B64187004055AF55B20040F742C6A
:100D7E00254AF8E6FFE55AD39F4014800D743C25B2
:100D8E004AF8E6FFE55AD39F4005755A01054AD346
:100D9E00E54A940C74809480400B754A01054DE52C
:100DAE004D7002054CD3E54D9402E54C9408400677
:0F0DBE00754C07754DE6D007D000D0D0D0E0328D
:1005D000E560FB7A0064017016D3E53994007480FD
:1005E0009480400BE4FD7F07120E6615398043EBC3
:1005F00064014A701FD3E53A9400748094804014DB
:10060000E55B75F00A842421F8E6FD7F07120E668B
:10061000153A801EE56064017008753980753A806E
:100620008010E55B75F00A842421F8E6FD7F07124F
:100630000E66E560FB7A0064017016D3E53994001C
:1006400074809480400BE4FD7F06120E661539809D
:1006500047EB64014A7021D3E53A9400748094809A
:100660004016E55B75F00A84742125F0F8E6FD7FFD
:1006700006120E66153A8020E5606401700875392F
:1006800080753A808012E55B75F00A84742125F04C
:10069000F8E6FD7F06120E66AD2B7F05120E66E5AD
:1006A00060FB7A0064027016D3E53994007480947C
:1006B00080400BE4FD7F04120E6615398029EB643F
:1006C000024A7012D3E53A94007480948040071275
:1006D0000E59153A8011E56064027008753980750D
:1006E0003A808003120E59E560FB7A0064027016AE
:1006F000D3E539940074809480400BE4FD7F0312AD
:100700000E6615398047EB64024A7021D3E53A94AE
:1007100000748094804016E55975F00A8474212590
:10072000F0F8E6FD7F03120E66153A8020E560645E
:10073000027008753980753A808012E55975F00AA3
:1007400084742125F0F8E6FD7F03120E66AD2B7F41
:1007500002120E66E560FB7A0064037016D3E53979
:10076000940074809480400BE4FD7F01120E6615A6
:10077000398043EB64034A701FD3E53A94007480D8
:1007800094804014E54975F00A842421F8E6FD7F41
:1007900001120E66153A801EE56064037008753913
:1007A00080753A808010E54975F00A842421F8E6C6
:1007B000FD7F01120E66E560FB7A0064037014D3BE
:1007C000E5399400748094804009E4FDFF120E66C0
:1007D000153922EB64034A7020D3E53A9400748003
:1007E00094804015E54975F00A84742125F0F8E6F7
:1007F000FDE4FF120E66153A22E56064037007758A
:100800003980753A8022E54975F00A84742125F013
:09081000F8E6FDE4FF120E662279
:100AB40020B11CE55C70187F03120FBD20B110300B
:100AC400B1FD7F03120FBD755C01756001C28CE539
:100AD4005C64016003020BD620B1207F03120FBDBA
:100AE40020B11830B1FD7F03120FBD0560D3E5605E
:100AF4009403748094804003756001E56064017020
:100B04003920B0197F03120FBD20B01130B0FD7F22
:100B140003120FBDE55B7003755B18155B20B21AF9
:100B24007F03120FBD20B21230B2FD7F03120FBD3E
:100B3400055BE55B64187002F55BE560640270397F
:100B440020B0197F03120FBD20B01130B0FD7F0318
:100B5400120FBDE559700375593C155920B21A7F1F
:100B640003120FBD20B21230B2FD7F03120FBD0578
:100B740059E559643C7002F559E560640370392005
:100B8400B0197F03120FBD20B01130B0FD7F0312E6
:100B94000FBDE549700375493C154920B21A7F031E
:100BA400120FBD20B21230B2FD7F03120FBD0549F2
:100BB400E549643C7002F54920B3177F03120FBD69
:100BC40020B30F30B3FD7F03120FBDE4F560F55C75
:030BD400D28C229E
:100371002003077DF37F07120E663003077DF97FA7
:1003810007120E66E561FB7A0064017016D3E53948
:10039100940074809480400BE4FD7F05120E661575
:1003A100398043EB64014A701FD3E53A94007480AD
:1003B10094804014E55F75F00A842421F8E6FD7FFE
:1003C10005120E66153A801EE561640170087539E3
:1003D10080753A808010E55F75F00A842421F8E683
:1003E100FD7F05120E66E561FB7A0064017016D38C
:1003F100E539940074809480400BE4FD7F04120E73
:10040100661539803DEB64014A701CD3E53A9400CE
:10041100748094804011E55F75F00A84744E25F074
:10042100120E61153A801BE561640170087539800F
:10043100753A80800DE55F75F00A84744E25F012DF
:100441000E61E561FB7A0064027016D3E539940010
:1004510074809480400BE4FD7F03120E6615398091
:1004610043EB64024A701FD3E53A94007480948090
:100471004014E55E75F00A842421F8E6FD7F03123D
:100481000E66153A801EE561640270087539807543
:100491003A808010E55E75F00A842421F8E6FD7F3C
:1004A10003120E66E561FB7A0064027016D3E5392A
:1004B100940074809480400BE4FD7F02120E661557
:1004C100398047EB64024A7021D3E53A9400748085
:1004D10094804016E55E75F00A84744E25F0F8E6C6
:1004E100FD7F02120E66153A8020E56164027008F4
:1004F100753980753A808012E55E75F00A84744E14
:1005010025F0F8E6FD7F02120E66E561FB7A0064D4
:10051100037016D3E539940074809480400BE4FD98
:100521007F01120E6615398043EB64034A701FD3B5
:10053100E53A9400748094804014E55D75F00A8476
:100541002421F8E6FD7F01120E66153A801EE56151
:1005510064037008753980753A808010E55D75F027
:100561000A842421F8E6FD7F01120E66E561FB7A1B
:100571000064037014D3E5399400748094804009B9
:10058100E4FDFF120E66153922EB64034A7020D395
:10059100E53A9400748094804015E55D75F00A8415
:1005A100744E25F0F8E6FDE4FF120E66153A22E5D9
:1005B1006164037007753980753A8022E55D75F0D5
:0F05C1000A84744E25F0F8E6FDE4FF120E662260
:10098D00E55C701620B0137F03120FBD20B00B3045
:10099D00B0FD7F03120FBD755C02E55C6402600360
:1009AD00020AB320B12B7F03120FBD20B12330B14A
:1009BD00FD7F03120FBD0561AF617E00EF64047012
:1009CD0002B203D3EF9403EE648094804003E4F508
:1009DD0061E5616401703920B0197F03120FBD20EC
:1009ED00B01130B0FD7F03120FBDE55F7003755F71
:1009FD0018155F20B21A7F03120FBD20B21230B24C
:100A0D00FD7F03120FBD055FE55F64187002F55F92
:100A1D00E5616402703920B0197F03120FBD20B05B
:100A2D001130B0FD7F03120FBDE55E7003755E3CA6
:100A3D00155E20B21A7F03120FBD20B21230B2FD27
:100A4D007F03120FBD055EE55E643C7002F55EE549
:100A5D00616403703920B0197F03120FBD20B011EE
:100A6D0030B0FD7F03120FBDE55D7003755D3C1564
:100A7D005D20B21A7F03120FBD20B21230B2FD7F7E
:100A8D0003120FBD055DE55D643C7002F55D20B39D
:100A9D00157F03120FBD20B30D30B3FD7F03120F71
:070AAD00BDE4F561F55C22D8
:100BD700E55B655F6003020CACE559655E60030287
:100BE7000CACE549655D6003020CAC200303020C05
:100BF700ACE55C6003020CAC20B103020C9B20B097
:100C070003020C9B20B203020C9B20B303020C9B34
:100C1700B2957D777F07120E66B2957DB87F061273
:100C27000E66B295E55F75F00A842421F8E6FD7F2C
:100C370005120E66B295E55F75F00A84744E25F0CD
:100C4700120E61B295E55E75F00A842421F8E6FD7F
:100C57007F03120E66B295E55E75F00A84744E2521
:100C6700F0F8E6FD7F02120E66B295E55D75F00AB3
:100C7700842421F8E6FD7F01120E66B295E55D75C5
:100C8700F00A84742125F0F8E6FDE4FF120E66B23F
:100C970095020BFF30B1FD30B0FA30B2F730B3F444
:060CA7007F03120FBD22C5
:10000E00E53BFB7A0064017016D3E53994007480E9
:10001E009480400BE4FD7F07120E661539804FEB7E
:10002E0064014A7025D3E53A940074809480401A96
:10003E00AE4CAF4D7C037DE8120F1A74212FF8E6FB
:10004E00FD7F07120E66153A8024E53B64017008A9
:10005E00753980753A808016AE4CAF4D7C037DE8C5
:10006E00120F1A74212FF8E6FD7F07120E66E53B7C
:10007E00FB7A0064017016D3E53994007480948085
:10008E00400BE4FD7F06120E661539805DEB6401B0
:10009E004A702CD3E53A9400748094804021AE4C83
:1000AE00AF4D7C007D64120F1A7C007D0A120F1A70
:1000BE0074212DF8E6FD7F06120E66153A802BE5AB
:1000CE003B64017008753980753A80801DAE4CAF67
:1000DE004D7C007D64120F1A7C007D0A120F1A747B
:1000EE00212DF8E6FD7F06120E66E53BFB7A0064D5
:1000FE00017016D3E539940074809480400BE4FDB2
:10010E007F05120E6615398069EB64014A7032D391
:10011E00E53A9400748094804027AE4CAF4D7C003D
:10012E007D64120F1A7E007F0ACFCDCFCECCCE12B9
:10013E000F1A74212FF8E6FD7F05120E66153A8010
:10014E0031E53B64017008753980753A808023AEC5
:10015E004CAF4D7C007D64120F1A7E007F0ACFCD0E
:10016E00CFCECCCE120F1A74212FF8E6FD7F0512DA
:10017E000E66E53BFB7A0064017016D3E5399400F8
:10018E0074809480400BE4FD7F04120E6615398056
:10019E0045EB64014A7020D3E53A94007480948054
:1001AE004015AE4CAF4D7C007D0A120F1A744E2DC9
:1001BE00120E61153A801FE53B6401700875398097
:1001CE00753A808011AE4CAF4D7C007D0A120F1A2D
:1001DE00744E2D120E61E53BFB7A0064027016D34D
:1001EE00E539940074809480400BE4FD7F03120E79
:1001FE006615398043EB64024A701FD3E53A9400CA
:10020E00748094804014E54A75F00A842421F8E63F
:10021E00FD7F03120E66153A801EE53B64027008E0
:10022E00753980753A808010E54A75F00A8424216C
:10023E00F8E6FD7F03120E66E53BFB7A0064027062
:10024E0016D3E539940074809480400BE4FD7F0250
:10025E00120E6615398047EB64024A7021D3E53AD7
:10026E009400748094804016E54A75F00A84744EAA
:10027E0025F0F8E6FD7F02120E66153A8020E53B6A
:10028E0064027008753980753A808012E54A75F0FF
:10029E000A84744E25F0F8E6FD7F02120E66E53BE9
:1002AE00FB7A0064037016D3E53994007480948051
:1002BE00400BE4FD7F01120E6615398043EB64039B
:1002CE004A701FD3E53A9400748094804014E55A26
:1002DE0075F00A842421F8E6FD7F01120E66153AA8
:1002EE00801EE53B64037008753980753A80801076
:1002FE00E55A75F00A842421F8E6FD7F01120E6698
:10030E00E53BFB7A0064037014D3E53994007480E6
:10031E0094804009E4FDFF120E66153922EB64034A
:10032E004A7020D3E53A9400748094804015E55AC3
:10033E0075F00A84744E25F0F8E6FDE4FF120E66A1
:10034E00153A22E53B64037007753980753A8022B1
:10035E00E55A75F00A84744E25F0F8E6FDE4FF12B6
:03036E000E6622F6
:10081900E55C701620B2137F03120FBD20B20B30B6
:10082900B2FD7F03120FBD755C03E55C64036003D1
:1008390002098C20B1207F03120FBD20B11830B1FD
:10084900FD7F03120FBD053BD3E53B9403748094F0
:10085900804003753B01E53B6401705420B0287F5B
:1008690003120FBD20B02030B0FD7F03120FBDE58C
:100879004DB4E60BE54CB40706754C07754DE7E535
:100889004D154D7002154C20B2267F03120FBD2065
:10089900B21E30B2FD7F03120FBD054DE54D70024A
:1008A900054CB4030BE54CB40806754C08754D02AC
:1008B900E53B6402703C20B01B7F03120FBD20B0E2
:1008C9001330B0FD7F03120FBDE54A640170037553
:1008D9004A0D154A20B21B7F03120FBD20B21330F7
:1008E900B2FD7F03120FBD054AE54A640D70037519
:1008F9004A01E53B6403707320B0357F03120FBDD5
:1009090020B02D30B0FD7F03120FBDD3E55A9401FD
:10091900748094805018200409742C254AF8E60440
:10092900F55A300409743C254AF8E604F55A155A73
:1009390020B2387F03120FBD20B23030B2FD7F03E1
:10094900120FBD055A200410742C254AF8E6FFE55C
:100959005AD39F4003755A01300410743C254AF854
:10096900E6FFE55AD39F4003755A0120B3157F036B
:10097900120FBD20B30D30B3FD7F03120FBDE4F597
:040989003BF55C22BC
:0E103400E55C7005D290C29122C290D291224A
:100CAD007BE87A03EB1BAE0270011A4E603AAD235E
:100CBD007F07120E66AD217F06120E66AD237F05EE
:100CCD00120E66AD237F04120E66AD227F03120E47
:100CDD0066AD227F02120E66AD227F01120E66AD49
:100CED0022E4FF120E6680BC7A037BE8EB1BAE029A
:100CFD0070011A4E603A7D387F07120E667D767F41
:100D0D0006120E667D387F05120E66E4FD7F041215
:100D1D000E667D797F03120E667D387F02120E6698
:100D2D007D797F01120E667DB9E4FF120E6680BCDF
:010D3D002293
:100F6F00120CADE4F560C200F561C202F53BC2039D
:100F7F00F55C753980753A80121012A290920112A9
:100F8F000FE9AF5CEF6004640170031205D0120A21
:100F9F00B4E55C6402700312037112098D120BD752
:0E0FAF00E55C6403700312000E12081980D175
:03000000020DCD21
:0C0DCD00787FE4F6D8FD758161020E14F9
:100F1A00BC000BBE0029EF8DF084FFADF022E4CCBB
:100F2A00F875F008EF2FFFEE33FEEC33FCEE9DEC84
:100F3A00984005FCEE9DFE0FD5F0E9E4CEFD22EDCA
:100F4A00F8F5F0EE8420D21CFEADF075F008EF2F14
:100F5A00FFED33FD4007985006D5F0F222C398FD05
:050F6A000FD5F0EA22A2
:100DD900020F6FE493A3F8E493A34003F68001F2B2
:100DE90008DFF48029E493A3F85407240CC8C3331B
:100DF900C4540F4420C8834004F456800146F6DFEA
:100E0900E4800B0102040810204080900EC2E47EA9
:100E1900019360BCA3FF543F30E509541FFEE493DE
:100E2900A360010ECF54C025E060A840B8E493A3A5
:100E3900FAE493A3F8E493A3C8C582C8CAC583CAD0
:100E4900F0A3C8C582C8CAC583CADFE9DEE780BE88
:010F190000D7
:00000001FF
